{
  "address": "0xf4E69fD2BE7cf552f89e4da878118c806c54EF5f",
  "abi": [
    {
      "inputs": [
        {
          "internalType": "address",
          "name": "_sourceToken",
          "type": "address"
        },
        {
          "internalType": "address",
          "name": "_targetToken",
          "type": "address"
        }
      ],
      "stateMutability": "nonpayable",
      "type": "constructor"
    },
    {
      "anonymous": false,
      "inputs": [
        {
          "indexed": false,
          "internalType": "address",
          "name": "user",
          "type": "address"
        },
        {
          "indexed": false,
          "internalType": "uint256",
          "name": "amount",
          "type": "uint256"
        },
        {
          "indexed": false,
          "internalType": "uint256",
          "name": "when",
          "type": "uint256"
        }
      ],
      "name": "Convert",
      "type": "event"
    },
    {
      "anonymous": false,
      "inputs": [
        {
          "indexed": false,
          "internalType": "uint256",
          "name": "amount",
          "type": "uint256"
        },
        {
          "indexed": false,
          "internalType": "uint256",
          "name": "when",
          "type": "uint256"
        }
      ],
      "name": "Deposit",
      "type": "event"
    },
    {
      "anonymous": false,
      "inputs": [
        {
          "indexed": true,
          "internalType": "address",
          "name": "previousOwner",
          "type": "address"
        },
        {
          "indexed": true,
          "internalType": "address",
          "name": "newOwner",
          "type": "address"
        }
      ],
      "name": "OwnershipTransferred",
      "type": "event"
    },
    {
      "anonymous": false,
      "inputs": [
        {
          "indexed": false,
          "internalType": "address",
          "name": "tokenAddress",
          "type": "address"
        },
        {
          "indexed": false,
          "internalType": "uint256",
          "name": "amount",
          "type": "uint256"
        },
        {
          "indexed": false,
          "internalType": "uint256",
          "name": "when",
          "type": "uint256"
        }
      ],
      "name": "Withdraw",
      "type": "event"
    },
    {
      "inputs": [
        {
          "internalType": "uint256",
          "name": "_amount",
          "type": "uint256"
        }
      ],
      "name": "convert",
      "outputs": [],
      "stateMutability": "nonpayable",
      "type": "function"
    },
    {
      "inputs": [
        {
          "internalType": "uint256",
          "name": "_amount",
          "type": "uint256"
        }
      ],
      "name": "deposit",
      "outputs": [],
      "stateMutability": "nonpayable",
      "type": "function"
    },
    {
      "inputs": [],
      "name": "owner",
      "outputs": [
        {
          "internalType": "address",
          "name": "",
          "type": "address"
        }
      ],
      "stateMutability": "view",
      "type": "function"
    },
    {
      "inputs": [],
      "name": "renounceOwnership",
      "outputs": [],
      "stateMutability": "nonpayable",
      "type": "function"
    },
    {
      "inputs": [
        {
          "internalType": "address",
          "name": "_sourceToken",
          "type": "address"
        },
        {
          "internalType": "address",
          "name": "_targetToken",
          "type": "address"
        }
      ],
      "name": "setTokens",
      "outputs": [],
      "stateMutability": "nonpayable",
      "type": "function"
    },
    {
      "inputs": [],
      "name": "sourceToken",
      "outputs": [
        {
          "internalType": "address",
          "name": "",
          "type": "address"
        }
      ],
      "stateMutability": "view",
      "type": "function"
    },
    {
      "inputs": [],
      "name": "targetToken",
      "outputs": [
        {
          "internalType": "address",
          "name": "",
          "type": "address"
        }
      ],
      "stateMutability": "view",
      "type": "function"
    },
    {
      "inputs": [
        {
          "internalType": "address",
          "name": "newOwner",
          "type": "address"
        }
      ],
      "name": "transferOwnership",
      "outputs": [],
      "stateMutability": "nonpayable",
      "type": "function"
    },
    {
      "inputs": [
        {
          "internalType": "address",
          "name": "_tokenAddress",
          "type": "address"
        }
      ],
      "name": "withdraw",
      "outputs": [],
      "stateMutability": "nonpayable",
      "type": "function"
    }
  ],
  "transactionHash": "0x2f0d98f427bdafc5092e0f3a0e5102644a7a1fc1abb5fee683c7eaf77b846def",
  "args": [
    "0x23c5d1164662758b3799103effe19cc064d897d6",
    "0x01a2df2ca978f9e75e2ecc56bf7158018ff123c2"
  ],
  "numDeployments": 1,
  "solcInputHash": "0cf2b29a9a3d48c7166cc4d75abc9454",
  "bytecode": "0x60806040523480156200001157600080fd5b50604051620012ec380380620012ec8339818101604052810190620000379190620002c4565b620000576200004b6200018e60201b60201c565b6200019660201b60201c565b600073ffffffffffffffffffffffffffffffffffffffff168273ffffffffffffffffffffffffffffffffffffffff1614158015620000c25750600073ffffffffffffffffffffffffffffffffffffffff168173ffffffffffffffffffffffffffffffffffffffff1614155b62000104576040517f08c379a0000000000000000000000000000000000000000000000000000000008152600401620000fb906200036c565b60405180910390fd5b81600160006101000a81548173ffffffffffffffffffffffffffffffffffffffff021916908373ffffffffffffffffffffffffffffffffffffffff16021790555080600260006101000a81548173ffffffffffffffffffffffffffffffffffffffff021916908373ffffffffffffffffffffffffffffffffffffffff16021790555050506200038e565b600033905090565b60008060009054906101000a900473ffffffffffffffffffffffffffffffffffffffff169050816000806101000a81548173ffffffffffffffffffffffffffffffffffffffff021916908373ffffffffffffffffffffffffffffffffffffffff1602179055508173ffffffffffffffffffffffffffffffffffffffff168173ffffffffffffffffffffffffffffffffffffffff167f8be0079c531659141344cd1fd0a4f28419497f9722a3daafe3b4186f6b6457e060405160405180910390a35050565b600080fd5b600073ffffffffffffffffffffffffffffffffffffffff82169050919050565b60006200028c826200025f565b9050919050565b6200029e816200027f565b8114620002aa57600080fd5b50565b600081519050620002be8162000293565b92915050565b60008060408385031215620002de57620002dd6200025a565b5b6000620002ee85828601620002ad565b92505060206200030185828601620002ad565b9150509250929050565b600082825260208201905092915050565b7f496e76616c696420746f6b656e20616464726573730000000000000000000000600082015250565b6000620003546015836200030b565b915062000361826200031c565b602082019050919050565b60006020820190508181036000830152620003878162000345565b9050919050565b610f4e806200039e6000396000f3fe608060405234801561001057600080fd5b50600436106100935760003560e01c80638da5cb5b116100665780638da5cb5b146100fa578063a3908e1b14610118578063b6b55f2514610134578063cbc7854e14610150578063f2fde38b1461016c57610093565b8063327107f71461009857806351cff8d9146100b65780635f8aaa69146100d2578063715018a6146100f0575b600080fd5b6100a0610188565b6040516100ad9190610a33565b60405180910390f35b6100d060048036038101906100cb9190610a7f565b6101ae565b005b6100da6103a4565b6040516100e79190610a33565b60405180910390f35b6100f86103ca565b005b6101026103de565b60405161010f9190610a33565b60405180910390f35b610132600480360381019061012d9190610ae2565b610407565b005b61014e60048036038101906101499190610ae2565b6105cc565b005b61016a60048036038101906101659190610b0f565b6106ee565b005b61018660048036038101906101819190610a7f565b610825565b005b600260009054906101000a900473ffffffffffffffffffffffffffffffffffffffff1681565b6101b66108a8565b600073ffffffffffffffffffffffffffffffffffffffff168173ffffffffffffffffffffffffffffffffffffffff1603610225576040517f08c379a000000000000000000000000000000000000000000000000000000000815260040161021c90610bac565b60405180910390fd5b60008173ffffffffffffffffffffffffffffffffffffffff166370a08231306040518263ffffffff1660e01b81526004016102609190610a33565b602060405180830381865afa15801561027d573d6000803e3d6000fd5b505050506040513d601f19601f820116820180604052508101906102a19190610be1565b9050600081116102e6576040517f08c379a00000000000000000000000000000000000000000000000000000000081526004016102dd90610c5a565b60405180910390fd5b8173ffffffffffffffffffffffffffffffffffffffff1663a9059cbb33836040518363ffffffff1660e01b8152600401610321929190610c89565b6020604051808303816000875af1158015610340573d6000803e3d6000fd5b505050506040513d601f19601f820116820180604052508101906103649190610cea565b507ff279e6a1f5e320cca91135676d9cb6e44ca8a08c0b88342bcdb1144f6511b56882824260405161039893929190610d17565b60405180910390a15050565b600160009054906101000a900473ffffffffffffffffffffffffffffffffffffffff1681565b6103d26108a8565b6103dc6000610926565b565b60008060009054906101000a900473ffffffffffffffffffffffffffffffffffffffff16905090565b6000811161044a576040517f08c379a000000000000000000000000000000000000000000000000000000000815260040161044190610d9a565b60405180910390fd5b600160009054906101000a900473ffffffffffffffffffffffffffffffffffffffff1673ffffffffffffffffffffffffffffffffffffffff166323b872dd3330846040518463ffffffff1660e01b81526004016104a993929190610dba565b6020604051808303816000875af11580156104c8573d6000803e3d6000fd5b505050506040513d601f19601f820116820180604052508101906104ec9190610cea565b50600260009054906101000a900473ffffffffffffffffffffffffffffffffffffffff1673ffffffffffffffffffffffffffffffffffffffff1663a9059cbb33836040518363ffffffff1660e01b815260040161054a929190610c89565b6020604051808303816000875af1158015610569573d6000803e3d6000fd5b505050506040513d601f19601f8201168201806040525081019061058d9190610cea565b507f9018eade4aec2a696b34b0f5459a1a7dc058389bab8e2380d880817a9e22b2133382426040516105c193929190610d17565b60405180910390a150565b6000811161060f576040517f08c379a000000000000000000000000000000000000000000000000000000000815260040161060690610d9a565b60405180910390fd5b600260009054906101000a900473ffffffffffffffffffffffffffffffffffffffff1673ffffffffffffffffffffffffffffffffffffffff166323b872dd3330846040518463ffffffff1660e01b815260040161066e93929190610dba565b6020604051808303816000875af115801561068d573d6000803e3d6000fd5b505050506040513d601f19601f820116820180604052508101906106b19190610cea565b507fa3af609bf46297028ce551832669030f9effef2b02606d02cbbcc40fe6b47c5581426040516106e3929190610df1565b60405180910390a150565b6106f66108a8565b600073ffffffffffffffffffffffffffffffffffffffff168273ffffffffffffffffffffffffffffffffffffffff16141580156107605750600073ffffffffffffffffffffffffffffffffffffffff168173ffffffffffffffffffffffffffffffffffffffff1614155b61079f576040517f08c379a000000000000000000000000000000000000000000000000000000000815260040161079690610bac565b60405180910390fd5b81600160006101000a81548173ffffffffffffffffffffffffffffffffffffffff021916908373ffffffffffffffffffffffffffffffffffffffff16021790555080600260006101000a81548173ffffffffffffffffffffffffffffffffffffffff021916908373ffffffffffffffffffffffffffffffffffffffff1602179055505050565b61082d6108a8565b600073ffffffffffffffffffffffffffffffffffffffff168173ffffffffffffffffffffffffffffffffffffffff160361089c576040517f08c379a000000000000000000000000000000000000000000000000000000000815260040161089390610e8c565b60405180910390fd5b6108a581610926565b50565b6108b06109ea565b73ffffffffffffffffffffffffffffffffffffffff166108ce6103de565b73ffffffffffffffffffffffffffffffffffffffff1614610924576040517f08c379a000000000000000000000000000000000000000000000000000000000815260040161091b90610ef8565b60405180910390fd5b565b60008060009054906101000a900473ffffffffffffffffffffffffffffffffffffffff169050816000806101000a81548173ffffffffffffffffffffffffffffffffffffffff021916908373ffffffffffffffffffffffffffffffffffffffff1602179055508173ffffffffffffffffffffffffffffffffffffffff168173ffffffffffffffffffffffffffffffffffffffff167f8be0079c531659141344cd1fd0a4f28419497f9722a3daafe3b4186f6b6457e060405160405180910390a35050565b600033905090565b600073ffffffffffffffffffffffffffffffffffffffff82169050919050565b6000610a1d826109f2565b9050919050565b610a2d81610a12565b82525050565b6000602082019050610a486000830184610a24565b92915050565b600080fd5b610a5c81610a12565b8114610a6757600080fd5b50565b600081359050610a7981610a53565b92915050565b600060208284031215610a9557610a94610a4e565b5b6000610aa384828501610a6a565b91505092915050565b6000819050919050565b610abf81610aac565b8114610aca57600080fd5b50565b600081359050610adc81610ab6565b92915050565b600060208284031215610af857610af7610a4e565b5b6000610b0684828501610acd565b91505092915050565b60008060408385031215610b2657610b25610a4e565b5b6000610b3485828601610a6a565b9250506020610b4585828601610a6a565b9150509250929050565b600082825260208201905092915050565b7f496e76616c696420746f6b656e20616464726573730000000000000000000000600082015250565b6000610b96601583610b4f565b9150610ba182610b60565b602082019050919050565b60006020820190508181036000830152610bc581610b89565b9050919050565b600081519050610bdb81610ab6565b92915050565b600060208284031215610bf757610bf6610a4e565b5b6000610c0584828501610bcc565b91505092915050565b7f496e76616c69642062616c616e63650000000000000000000000000000000000600082015250565b6000610c44600f83610b4f565b9150610c4f82610c0e565b602082019050919050565b60006020820190508181036000830152610c7381610c37565b9050919050565b610c8381610aac565b82525050565b6000604082019050610c9e6000830185610a24565b610cab6020830184610c7a565b9392505050565b60008115159050919050565b610cc781610cb2565b8114610cd257600080fd5b50565b600081519050610ce481610cbe565b92915050565b600060208284031215610d0057610cff610a4e565b5b6000610d0e84828501610cd5565b91505092915050565b6000606082019050610d2c6000830186610a24565b610d396020830185610c7a565b610d466040830184610c7a565b949350505050565b7f496e76616c696420616d6f756e74000000000000000000000000000000000000600082015250565b6000610d84600e83610b4f565b9150610d8f82610d4e565b602082019050919050565b60006020820190508181036000830152610db381610d77565b9050919050565b6000606082019050610dcf6000830186610a24565b610ddc6020830185610a24565b610de96040830184610c7a565b949350505050565b6000604082019050610e066000830185610c7a565b610e136020830184610c7a565b9392505050565b7f4f776e61626c653a206e6577206f776e657220697320746865207a65726f206160008201527f6464726573730000000000000000000000000000000000000000000000000000602082015250565b6000610e76602683610b4f565b9150610e8182610e1a565b604082019050919050565b60006020820190508181036000830152610ea581610e69565b9050919050565b7f4f776e61626c653a2063616c6c6572206973206e6f7420746865206f776e6572600082015250565b6000610ee2602083610b4f565b9150610eed82610eac565b602082019050919050565b60006020820190508181036000830152610f1181610ed5565b905091905056fea264697066735822122009b53b97b08c94561095c6794e08e796ce8a6f12598db076a1353a9119ebba2564736f6c63430008130033",
  "devdoc": {
    "kind": "dev",
    "methods": {
      "convert(uint256)": {
        "details": "Convert the tokens from the source token to the target token",
        "params": {
          "_amount": "The amount of tokens to convert"
        }
      },
      "deposit(uint256)": {
        "details": "Deposit target tokens to the contract by any address",
        "params": {
          "_amount": "The amount of tokens to deposit"
        }
      },
      "owner()": {
        "details": "Returns the address of the current owner."
      },
      "renounceOwnership()": {
        "details": "Leaves the contract without owner. It will not be possible to call `onlyOwner` functions. Can only be called by the current owner. NOTE: Renouncing ownership will leave the contract without an owner, thereby disabling any functionality that is only available to the owner."
      },
      "setTokens(address,address)": {
        "details": "Set the address of the source token and the target token by the owner",
        "params": {
          "_sourceToken": "The address of the source token",
          "_targetToken": "The address of the target token"
        }
      },
      "transferOwnership(address)": {
        "details": "Transfers ownership of the contract to a new account (`newOwner`). Can only be called by the current owner."
      },
      "withdraw(address)": {
        "details": "Withdraw tokens from the contract by the ownerThe owner must specify the address of the token",
        "params": {
          "_tokenAddress": "The address of the token"
        }
      }
    },
    "version": 1
  },
  "userdoc": {
    "kind": "user",
    "methods": {
      "convert(uint256)": {
        "notice": "The sender must approve the contract to transfer the tokens by himself"
      },
      "deposit(uint256)": {
        "notice": "The approving tokens will be executed by the sender"
      }
    },
    "version": 1
  },
  "storageLayout": {
    "storage": [
      {
        "astId": 7,
        "contract": "contracts/MigrateToken.sol:MigrateToken",
        "label": "_owner",
        "offset": 0,
        "slot": "0",
        "type": "t_address"
      },
      {
        "astId": 220,
        "contract": "contracts/MigrateToken.sol:MigrateToken",
        "label": "sourceToken",
        "offset": 0,
        "slot": "1",
        "type": "t_address"
      },
      {
        "astId": 222,
        "contract": "contracts/MigrateToken.sol:MigrateToken",
        "label": "targetToken",
        "offset": 0,
        "slot": "2",
        "type": "t_address"
      }
    ],
    "types": {
      "t_address": {
        "encoding": "inplace",
        "label": "address",
        "numberOfBytes": "20"
      }
    }
  }
}